:100000000C94A2010C946B130C9444130C94CA012D
:100010000C94CA010C94CA010C94CA010C9492135A
:100020000C94CA010C94CA010C94CA010C94CA0124
:100030000C94CA010C94CA010C94CA010C94CA0114
:100040000C94FA120C94CA010C94C8120C94A212CB
:100050000C94CA010C94CA010C94CA010C94CA01F4
:100060000C94CA010C94CA0120686F6C6400206370
:100070006C69636B004552524F52006D6964646C49
:1000800065007269676874006C656674004D6F7511
:1000900073652000437573746F6D204465766963E2
:1000A0006520646174613A004368616E676520731E
:1000B0007065656420746F3A002076616C75653AEE
:1000C000004B657920686F6C64004B65792077720E
:1000D0006974650020426974733D200020475549CA
:1000E0000020616C74206B65790020636F6E747200
:1000F0006F6C206B657900207368696674206B658E
:100100007900206D6964646C6520627574746F6E2B
:100110000020726967687420627574746F6E0020C5
:100120006C65667420627574746F6E0020636C6514
:10013000617220616C6C00546F67676C65004D6F75
:10014000757365204D6F7665204572726F72004938
:100150006E63726561736520737065656420667295
:100160006F6D20004465637265617365207370650F
:1001700065642066726F6D2000646F776E20007575
:100180007020004D6F75736520576865656C2000A1
:10019000646F776E2000757020006C6566742000B7
:1001A000726967687420004D6F757365206D6F7696
:1001B0006520002043594B4D206465636F6465647E
:1001C0003A004761703D00204755490020616C743A
:1001D0000020636F6E74726F6C00207368696674C0
:1001E0000000000000240027002A00000000002377
:1001F0000026002900526561647920746F207265C1
:100200006365697665204952207369676E616C7316
:100210000000000000250028002B00040404040452
:1002200004040402020202020203030303030301A3
:10023000020408102040800102040810200102047A
:10024000081020000000080002010000030407005D
:100250000000000000000043594B4D0072636D6DBB
:10026000004469726563545600472E492E4361620B
:100270006C650053616D73756E673336004E454390
:1002800078004A56430050616E61736F6E69632057
:100290004F6C64005243360052433500536F6E7901
:1002A000004E454300556E6B6E6F776E00556E7352
:1002B00075700009206D61783A00537061636520A4
:1002C0006D696E3A0009206D61783A004D61726B7C
:1002D00020206D696E3A00457874656E743D0009A2
:1002E000200009002073003A6D00202073002020B8
:1002F000486561643A206D00293A204761703A00F0
:100300005261772073616D706C657328004175745C
:100310006F20526573756D6564002062697473297E
:10032000200020280020416472733A00293A2056A8
:10033000616C75653A0028004465636F64656420EC
:100340000000E31511241FBECFEFD8E0DEBFCDBF04
:1003500012E0A0E0B1E0E2EBF1E302C005900D9203
:10036000A43EB107D9F724E0A4EEB2E001C01D928B
:10037000A33AB207E1F711E0C2EAD1E004C0219745
:10038000FE010E94C818C13AD107C9F70E943C1665
:100390000C94D7180C940000CF92DF92EF92FF924A
:1003A000CF93DF93EC01072E000C880B990B0E9472
:1003B00077176B017C0120E030E040E45FE30E94AE
:1003C000DB170E944617C617D70770F020E030E011
:1003D00040EA5FE3C701B6010E94DB170E9446179F
:1003E00021E06C177D0708F420E0822FDF91CF9188
:1003F000FF90EF90DF90CF900895CF93DF9310920E
:10040000940380919503E0915F04F0916004882348
:1004100019F110929503DF0120E080916104281703
:1004200010F5822F90E0880F991FED01C80FD91F9A
:10043000488159816091A0047091A10420FF03C0FC
:100440007195619571098E0F9F1F460F571FEC0123
:10045000598348832F5FE1CF80915E0480936104CC
:10046000A6E9B3E0D9CF1092930381E0DF91CF9159
:100470000895AF92BF92CF92DF92EF92FF920F93C7
:100480001F93CF93DF936C017B018B01040F151F2A
:10049000EB015E01AE18BF08C017D10759F0699192
:1004A000D601ED91FC910190F081E02DC6010995F6
:1004B000892B79F7C501DF91CF911F910F91FF90A3
:1004C000EF90DF90CF90BF90AF900895FC01538DD7
:1004D000448D252F30E0842F90E0821B930B54171E
:1004E00010F0CF96089501970895FC01918D828DAB
:1004F000981761F0A28DAE0FBF2FB11D5D968C9144
:10050000928D9F5F9F73928F90E008958FEF9FEF82
:100510000895FC01918D828D981731F0828DE80F3E
:10052000F11D858D90E008958FEF9FEF0895FC01F8
:10053000918D228D892F90E0805C9F4F821B9109C5
:100540008F73992708958FEE92E00E94970221E021
:10055000892B09F420E0822F089580E090E0892B18
:1005600029F00E94A30281110C9400000895FC015F
:10057000A48DA80FB92FB11DA35ABF4F2C91848D04
:1005800090E001968F739927848FA689B7892C9361
:10059000A089B1898C91837080648C93938D848DB4
:1005A000981306C00288F389E02D80818F7D8083B7
:1005B0000895EF92FF920F931F93CF93DF93EC0177
:1005C00081E0888F9B8D8C8D98131AC0E889F989FA
:1005D000808185FF15C09FB7F894EE89FF896083FD
:1005E000E889F98980818370806480839FBF81E07E
:1005F00090E0DF91CF911F910F91FF90EF900895C0
:10060000F62E0B8D10E00F5F1F4F0F731127E02E9A
:100610008C8D8E110CC00FB607FCFACFE889F989D2
:10062000808185FFF5CFCE010E94B702F1CFEB8D1F
:10063000EC0FFD2FF11DE35AFF4FF0829FB7F894A6
:100640000B8FEA89FB8980818062CFCF0F931F9344
:10065000CF93DF938C01D0E0C0E0F801EC0FFD1FD9
:100660006491662341F08FEE92E00E94D902892BBB
:1006700011F02196F2CFCE01DF91CF911F910F9112
:100680000895CF93DF93EC01888D8823B9F0AA8970
:10069000BB89E889F9898C9185FD03C0808186FD3D
:1006A0000DC00FB607FCF7CF8C9185FFF2CF80818C
:1006B00085FFEDCFCE010E94B702E9CFDF91CF9148
:1006C0000895833081F028F4813099F08230A9F0C8
:1006D00008958730A9F08830C9F08430B1F4809152
:1006E00080008F7D03C0809180008F778093800091
:1006F000089584B58F7784BD089584B58F7DFBCF31
:100700008091B0008F778093B00008958091B00001
:100710008F7DF9CF1F93CF93DF93E0E5F2E09491C3
:10072000ECE3F2E0D491E8E2F2E0C491CC23B9F03A
:10073000182F992319F0892F0E946103EC2FF0E004
:10074000EE0FFF1FEF5EFD4FA591B4918FB7F894A8
:10075000EC91111108C0D095DE23DC938FBFDF919F
:10076000CF911F910895DE2BF8CFCF93DF93282FE1
:1007700030E0F901ED5BFD4F8491F901E15DFD4F42
:10078000D491F901E55EFD4FC491CC23A1F0811114
:100790000E946103EC2FF0E0EE0FFF1FE551FE4FCA
:1007A000A591B491EC91ED2381E090E009F480E013
:1007B000DF91CF91089580E090E0FACF3FB7F894B1
:1007C0008091EB029091EC02A091ED02B091EE02CB
:1007D00026B5A89B05C02F3F19F00196A11DB11D9C
:1007E0003FBFBA2FA92F982F8827BC01CD01620FD8
:1007F000711D811D911D42E0660F771F881F991F93
:100800004A95D1F708950895FC018481823068F4F7
:10081000E82FF0E0813089F0E898EE0FFF1FE050FC
:10082000FF4F83E094E091838083109293031092B2
:10083000950384E0809366040895E998EECFCF9302
:10084000DF93AC0180919403811159C081E08093C2
:10085000930380916604843029F08091E502882317
:1008600009F44DC020918C0330E0F901E15DFD4FAA
:100870009491255E3D4FF90124912223C1F030E08F
:10088000220F331FF901EF51FE4FC591D491F901A9
:10089000EF5EFD4FA591B4912FB7F8943881892F61
:1008A000809583238883EC919E2B9C932FBFEA0134
:1008B00010925E0481E0809366041092E5020E942B
:1008C000DE036093620470936304809364049093E6
:1008D00065048C81823098F4E82FF0E0EE0FFF1F62
:1008E000E050FF4F2DE232E131832083813051F01F
:1008F000809169008C7F816080936900E89ADF9124
:10090000CF91089580916900837F8460809369000E
:10091000E99AF5CF80919203882349F080915E0493
:1009200080FF03C081E00C948A0380E0FCCF08952F
:100930005F926F927F928F929F92AF92BF92CF926F
:10094000DF92EF92FF920F931F93CF93DF93DC011F
:10095000ED91FC913697A080B180A80EB91EF501EB
:10096000538420916104521608F060C08A017B0113
:10097000EC01852D90E0880F991FE0915F04F091C4
:100980006004E80FF91FC080D180752C709470FA54
:10099000772470F8612CBA01C6010E94CC01811144
:1009A0001CC04801880C991CB401C6010E94CC01EE
:1009B00081112CC0B401600F711FC6010E94CC01CF
:1009C000811126C0D5011A968C91882399F1B1E046
:1009D0005B1230C0C016D10668F591E0F701808146
:1009E0008F5F8917B8F48083872D962DDF91CF9183
:1009F0001F910F91FF90EF90DF90CF90BF90AF903D
:100A00009F908F907F906F905F90089592E0E6CFD7
:100A100093E0E4CF1082E881F9813697808191815B
:100A2000C80FD91F8B858F5F8B87DECF7724739498
:100A3000612CDACF82E0782EFBCF2F923F924F923B
:100A40005F926F927F928F929F92AF92BF92CF925E
:100A5000DF92EF92FF920F931F93CF93DF9300D01B
:100A600000D000D0CDB7DEB79E838D83B62E2A018D
:100A700049011C830B83DC01ED91FC910190F08115
:100A8000E02D0995B0916104BA83BB20F1F080910B
:100A900061048B15D1F080E026960FB6F894DEBF86
:100AA0000FBECDBFDF91CF911F910F91FF90EF90BF
:100AB000DF90CF90BF90AF909F908F907F906F907E
:100AC0005F904F903F902F900895A0905F04B0905A
:100AD0006004ED81FE818285811109C0D5011296E5
:100AE0008D919C91B2010E94CC018823A1F28114C6
:100AF000910441F0F50184819581B4010E94CC01FB
:100B0000882349F283E0AD81BE811B968C93412CF2
:100B1000512C612C712C00E010E0212C312CBA8179
:100B2000B150BA83ED81FE81F385F9832F2F30E038
:100B30008A81F81708F047C0220F331FF501E20F32
:100B4000F31F808191816B817C810E94CC0188237D
:100B500009F4A1CF89808394AD81BE811B968C92CC
:100B6000912C880C991C8A0C9B1CF401808191812A
:100B7000B7010E94CC018823A1F09201A301B80122
:100B8000C10101E00E949218422E689440F8532E51
:100B90003A018B011C0189818E5FED81FE81838783
:100BA000C1CFD4018D919C91B6010E94CC018823C4
:100BB00009F471CF9201A301B801C10101E00E94C3
:100BC0009218422EE4CFC901019797FDC90195956E
:100BD00087958150AD81BE8119968C9319979201AA
:100BE000A30113964C92139714963C931497159661
:100BF0006C92159716965C931697B801C10100E2A6
:100C00000E94AD1817962C93179718963C9381E085
:100C100043CFFC0112821382148215821682108641
:100C2000178211860895CF93DF93EC01E881F98153
:100C300036970190F081E02DE80FF91F83819481B0
:100C4000A581B68190FF04C08AED91E00E94260341
:100C5000E881F98136970190F081E02DEC0FFD1FBE
:100C600083819481A581B68191FF04C081ED91E0DB
:100C70000E942603E881F98136970190F081E02DEA
:100C8000EC0FFD1F83819481A581B68192FF04C082
:100C90008CEC91E00E942603E881F98136978081EF
:100CA0009181C80FD91F8B819C81AD81BE8193FF3B
:100CB00006C087EC91E0DF91CF910C942603DF9181
:100CC000CF910895CF92DF92EF92FF920F931F93EF
:100CD000CF93DF93EC01E881F98136978081918190
:100CE0008C0F9D1FDC01ED91FC910190F081E02DB6
:100CF00009952091610488819981263009F041C0CD
:100D0000E0915F04F09160042281338128533D40DB
:100D1000213D3840B0F52481358128533D40213DA7
:100D2000384078F526813781275A31402B313140C0
:100D300040F522853385275A31402B31314008F563
:100D40000697DC01ED91FC91EC0FFD1F1186E88107
:100D5000F981369780819181C80FD91F8FEF9FEF5E
:100D6000DC018B839C83AD83BE8387E08A8381E033
:100D7000DF91CF911F910F91FF90EF90DF90CF9077
:100D800008950697FC018081918124E3C22E22E020
:100D9000D22E3CE9E32E36E0F32E04E312E020EA03
:100DA00031E140EA51E164E48C0F9D1F0E941D0572
:100DB0008823F1F2E881F981369720813181C20FD1
:100DC000D31F97E09A83D4CFCF92DF92EF92FF9216
:100DD0000F931F93CF93DF93EC01E881F98136974E
:100DE0008081918121E4C22E23E0D22E33ECE32EC8
:100DF00039E0F32E01E413E024E03DE044E05DE05F
:100E000060E38C0F9D1F0E941D05882349F0E88137
:100E1000F981369720813181C20FD31F95E09A83E3
:100E2000DF91CF911F910F91FF90EF90DF90CF90C6
:100E30000895EF92FF920F931F93CF93DF93EC01EE
:100E4000E881F9813897808191818C0F9D1FDC01A9
:100E5000ED91FC910190F081E02D09958091610464
:100E6000873140F480E0DF91CF911F910F91FF9087
:100E7000EF900895809161048E34A0F7E881F981A4
:100E800038970190F081E02DEC0FFD1FA0915F04D9
:100E9000B09160048285811109C012968D919C9158
:100EA00013978F5C974086339540E0F614968D91AA
:100EB0009C918A5992408E3B9140A0F683E08387B3
:100EC000E881F98136970190F081E02DEC0FFD1F4C
:100ED00014821582168217821382E881F98136976F
:100EE000808191818C0F9D1FBC016D5F7F4F4CEB0A
:100EF00051E00E949804892B09F0B4CFE881F98170
:100F00003697808191818C0F9D1FBC016D5F7F4F53
:100F10004CEB51E00E949804019709F0A3CFE881BF
:100F2000F98136970190F081E02DEC0FFD1F1282C0
:100F30002881398140916104F9013697808191813E
:100F40008C0F9D1F28503109D901ED91FC91EC0FB8
:100F5000FD1F2385241708F086C0BC016D5F7F4FFD
:100F60004CEB51E00E9498048C01E881F98136979E
:100F7000808191818C0F9D1FFC012281233009F417
:100F800041C0E881F9813697808191818C0F9D1F46
:100F9000BC016D5F7F4F4CEB51E00E9498047C01D7
:100FA000E881F9813697808191818C0F9D1FDC014A
:100FB00012962C91233059F4BC016D5F7F4F4CEB9E
:100FC00051E00E9498048E159F0509F04BCF011542
:100FD000110521F10130110509F044CFEF2809F086
:100FE00041CFE881F98136970190F081E02DEC0F37
:100FF000FD1F84819581A681B781880F991FAA1F43
:10100000BB1F21C0BC016D5F7F4F4CEB51E00E94C4
:1010100098048017910709F4B4CF24CFEA94EF28FD
:1010200009F020CFE881F98136970190F081E02D19
:10103000EC0FFD1F84819581A681B781880F991FD0
:10104000AA1FBB1F816084839583A683B783E88131
:10105000F98136970190F081E02DEC0FFD1F828120
:101060008F5F828365CFFC012281243211F420E25C
:10107000228388819981FC0136970190F081E02DCF
:10108000EC0FFD1F22810897DC01ED91FC91EC0F24
:10109000FD1F218788819981FC0138970190F0819B
:1010A000E02DEC0FFD1F0697DC018D919C91C80F80
:1010B000D91F8C819D81AE81BF8183839483A58359
:1010C000B68384E0828381E0CECE0F931F93CF93CB
:1010D000DF93EC01E881F9813897808191818C0F51
:1010E0009D1FDC01ED91FC910190F081E02D0995AF
:1010F000809161048D3030F480E0DF91CF911F91B9
:101100000F910895E881F98138970190F081E02DE1
:10111000EC0FFD1F81E08387E881F981369701900C
:10112000F081E02DEC0FFD1F1482158216821782CC
:101130001382E881F9813697808191818C0F9D1F00
:10114000BC016D5F7F4F49E753E00E949804892BF3
:1011500099F6E881F98136970190F081E02DEC0F46
:10116000FD1F128288819981FC0138970190F081DE
:10117000E02DEC0FFD1F209161040697DC018D919D
:101180009C918C0F9D1F3385321708F054C0BC0111
:101190006D5F7F4F49E753E00E9498048C01E8811E
:1011A000F9813697808191818C0F9D1FBC016D5F05
:1011B0007F4F49E753E00E9498040130110521F563
:1011C000892B09F099CFE881F98136970190F08158
:1011D000E02DEC0FFD1F84819581A681B781880FDA
:1011E000991FAA1FBB1F816084839583A683B78341
:1011F000E881F98136970190F081E02DEC0FFD1F19
:1012000082818F5F8283AECF012B09F075CF01976A
:1012100009F072CFE881F98136970190F081E02DD5
:10122000EC0FFD1F84819581A681B781880F991FDE
:10123000AA1FBB1FD9CFDC0112968C9181878881B0
:101240009981FC0138970190F081E02DEC0FFD1F92
:101250000697DC018D919C91C80FD91F8C819D81CF
:10126000AE81BF8183839483A583B68383E0828329
:1012700081E043CFCF93DF93EC01E881F98136978A
:10128000808191818C0F9D1FDC01ED91FC9101907B
:10129000F081E02D099580916104823181F0809187
:1012A00061048A3161F080916104803241F0809163
:1012B00061048A3221F080E0DF91CF910895E881C6
:1012C000F98136970190F081E02DEC0FFD1F209100
:1012D0005F04309160048285811109C0D9011296A2
:1012E0008D919C9188509740813B944020F782E0FB
:1012F0008387E881F9813697A081B181AC0FBD1F4A
:101300001B964C911B9750916104842F90E04517D8
:1013100008F047C0880F991FF901E80FF91F808175
:101320009181825C91408D32914028F64F5F1B96EF
:101330004C93E881F98136970190F081E02DEC0F14
:10134000FD1F4385A42FB0E0AA0FBB1FA20FB31F40
:101350008D919C911197845893408935924088F0E3
:101360008D919C91825C91408D32914008F0A3CF89
:1013700083819481A581B681880F991FAA1FBB1F05
:1013800009C083819481A581B681880F991FAA1F06
:10139000BB1F816083839483A583B6834F5F43879C
:1013A000A8CF9C012150310937FD9C013595279527
:1013B00019962C93E881F981369780819181C80F25
:1013C000D91F82E08A8381E077CF9F92AF92BF924C
:1013D000CF92DF92EF92FF920F931F93CF93DF9301
:1013E000EC01E881F9813897A080B180A80EB91E80
:1013F000D501ED91FC913697808191818A0D9B1DDD
:10140000DC01ED91FC910190F081E02D0995209196
:101410006104F501808191812430F1F5E0915F0450
:10142000F09160042281338120573A41213A3141C1
:1014300098F5248135812C5936402936344060F5A1
:1014400026813781275A31402B31314028F50697C4
:10145000EC01E881F981EA0DFB1D1186D501ED91C2
:10146000FC9136970190F081E02DEA0DFB1D8FEF86
:101470009FEFDC0183839483A583B68381E082831D
:10148000DF91CF911F910F91FF90EF90DF90CF9060
:10149000BF90AF909F9008950697FC018081918145
:1014A00064E3C62E62E0D62E7CE9E72E76E0F72EC6
:1014B00004E312E020EA31E140E453E264E48A0DFF
:1014C0009B1D0E941D05882361F0D501ED91FC91C3
:1014D00036970190F081E02DEA0DFB1D91E092839B
:1014E000CFCFE881F9813A97808191818C0F9D1F40
:1014F0000E943A09882311F081E0C2CFE881F98186
:101500003C97808191818C0F9D1F0E9465088111FD
:10151000F3CFE881F9817097808191818C0F9D1FB5
:101520000E9419078111E8CFE881F98172978081C3
:1015300091818C0F9D1F0E94E4068111DDCFE8810F
:10154000F9817497A080B180AC0EBD1ED501ED91DC
:10155000FC913697808191814DE0C42E42E0D42EDB
:1015600057E2E52E56E0F52E0DE012E028E630E1D8
:1015700040ED50E264E28A0D9B1D0E941D05811121
:10158000ECC080916104823289F5D501ED91FC9126
:1015900036978081918130E020E04DE052E060E0BC
:1015A0008A0D9B1D0E941D05882301F1D501ED9137
:1015B000FC9136970190F081E02DEA0DFB1DA09182
:1015C0005F04B091600414968D919C9115978D598C
:1015D00094408431934008F4B4C014968D919C914A
:1015E000895891408830914008F4B4C0E881F9816D
:1015F0007697808191818C0F9D1F0E9462068111D8
:101600007BCF809161048E3409F0C3C0E0915F0408
:10161000F0916004828193818F529D408B3C984071
:1016200008F0B7C0848195818F529D408B3C9840D3
:1016300008F0AFC0E881F9817897008111810C0F23
:101640001D1F83E0D80112968C93F8011382148237
:101650001582168262E2C8010E945014882309F4A0
:1016600098C0D8014D915C91119780915F04909141
:10167000600412962C911297E22FF0E0EE0FFF1FFC
:10168000E80FF91F60817181675771406B3F7105E9
:1016900008F07FC0E1E0E20F1296EC93F0E0EE0F6D
:1016A000FF1FE80FF91F608171816F527D406B3C15
:1016B000784008F06EC02E5FF80122834650510931
:1016C000DA01ED91FC91E00FF11FD80113962D91F5
:1016D0003C9130872783F801138214821582168289
:1016E000FC01E458FF4F80819181845491099183DA
:1016F00080836DE4C8010E945014882309F449C016
:10170000D801ED91FC91119736970190F081E02D71
:10171000E00FF11F94E29187ED91FC9111973697BC
:101720000190F081E02DE00FF11F13964D915D9136
:101730006D917C911697438354836583768398E0FB
:10174000CECE83819481A581B68190688383948372
:10175000A583B68381858F5F818720916104D50140
:10176000ED91FC913697A081B181AA0DBB1D81E05E
:1017700090E0243211F090E080E018969C938E93D4
:1017800017970190F081E02DEA0DFB1D86E0828322
:10179000B3CEE881F9817A97A080B180AC0EBD1EEE
:1017A00020916104D501ED91FC9136978081918162
:1017B0008A0D9B1D243071F5E0915F04F091600467
:1017C00022813381275D39412B33314118F5248142
:1017D00035812557364020353440E0F42681378165
:1017E0002F563140263F3105A8F4DC0119961C9292
:1017F000E501E881F98136970190F081E02DEA0D4D
:10180000FB1D8FEF9FEFDC0183839483A583B68359
:1018100089E0BDCFEDE9CE2EE8E0DE2EFAE3EF2E33
:10182000F1E1FF2E0AEE11E02AE331E144E752E252
:1018300064E20E941D05882359F0D501ED91FC91C9
:1018400036970190F081E02DEA0DFB1D99E047CE1F
:10185000E881F9817C97008111810C0F1D1FD8014F
:10186000ED91FC91369780819181800F911FDC0171
:10187000ED91FC910190F081E02D0995809161043A
:10188000843131F5F801A081B181BD016650710943
:10189000DB01ED91FC91E00FF11F20915F0430918D
:1018A0006004828581110AC1D90112968D919C91A3
:1018B0008A5C98408D3D954008F4FEC0D90112968F
:1018C0008D919C9184599141893B9B4008F437C18B
:1018D000E881F9817E97008111810C0F1D1FD801CD
:1018E000ED91FC91369780819181800F911FDC01F1
:1018F000ED91FC910190F081E02D099580916104BA
:10190000803149F0809161048C3129F0809161042B
:10191000843209F08CC0D801ED91FC91369701908A
:10192000F081E02DE00FF11F40915F0450916004C1
:10193000828581110AC0DA0112968D919C9188539B
:101940009140823D910508F072C0DA0114968D91A4
:101950009C91805D91098C38910508F068C083E006
:10196000838780E090E0DC01F80120813181F9017A
:1019700036970190F081E02D6F01C00ED11EF60167
:101980009384E0916104E92CF12CB701660F771F75
:10199000640F751F2E2F2150330BFB01E216F30647
:1019A0000CF04AC16081718167557109613A710516
:1019B000F0F521E0290DF6012387F801208131811E
:1019C000F901369760817181600F711FFB012385DA
:1019D000E22FF0E0EE0FFF1FE40FF51FA080B180B3
:1019E00036ECA31AB10831EAA316B10408F4F8C022
:1019F000A080B1803CE6A31A31E0B30A31EAA31615
:101A0000B10408F4F8C0A080B18033E1A31A32E039
:101A1000B30A31EAA316B10408F4F8C00190F081CA
:101A2000E02DEA5BF240E13AF10508F4FAC0E88102
:101A3000F981B09780819181C80FD91FE881F98120
:101A40003697808191812AE8C22E22E0D22E3EE98B
:101A5000E32E37E0F32E0AE812E02CE13CE04CE103
:101A60005CE062E28C0F9D1F0E941D05882309F433
:101A700007CDE881F98136970190F081E02DEC0FD8
:101A8000FD1F9CE09283E881F9813697A081B181A6
:101A9000AC0FBD1F13962D913C91222730773D83CB
:101AA0002C830190F081E02DEC0FFD1F2381348108
:101AB00033273F832E83E4CC10861782DB01ED9120
:101AC000FC91E00FF11FD90114968D919C918458DF
:101AD00093408935924008F0FBCE83E0838780E015
:101AE00090E0DC01F80140815181FA013697408194
:101AF0005181400F511FFA016385623108F05FC0C8
:101B0000E62FF0E0EE0FFF1FE20FF31FE080F18001
:101B100074E8E71A73E0F70A79E5E71672E0F7066A
:101B200098F00190F081E02DE25CF140ED32F1405F
:101B300008F0CECE880F991FAA1FBB1F0AC081E0F4
:101B400090E090878783BACF880F991FAA1FBB1F89
:101B500081606F5FFA016387F80140815181FA016A
:101B6000369740815181400F511FFA016385E62F5E
:101B7000F0E0EE0FFF1FE20FF31FE080F18074E84A
:101B8000E71A73E0F70A79E5E71672E0F70670F0F6
:101B90000190F081E02DE25CF140ED32F14008F07F
:101BA00097CE880F991FAA1FBB1F05C0880F991FCA
:101BB000AA1FBB1F81606F5FFA01638793CF20E18B
:101BC0002187E801E881F98136970190F081E02DC5
:101BD000E00FF11F83839483A583B6838AE0D7CD7A
:101BE000E2E0880F991FAA1FBB1FEA95D1F72F5F6C
:101BF000FB012387B9CE32E0880F991FAA1FBB1FB4
:101C00003A95D1F70196A11DB11DF1CFF2E0880FF1
:101C1000991FAA1FBB1FFA95D1F70296A11DB11DEE
:101C2000E6CFE2E0880F991FAA1FBB1FEA95D1F704
:101C30000396A11DB11DDBCF208131812D573109C4
:101C40002435310508F0F3CE209161042450E601DB
:101C50002987E801E881F98136970190F081E02D2C
:101C6000E00FF11F83839483A583B6838BE08FCD30
:101C7000DC01ED91FC913A9720813181820F931F15
:101C80000C94E509DC01ED91FC91389720813181BC
:101C9000820F931F0C94E509FC0101900020E9F7E5
:101CA0003197AF01481B590BBC018FEE92E00C94A9
:101CB00039028AED92E00C944C0ECF93DF930E9490
:101CC0002603EC010E94590E8C0F9D1FDF91CF91CE
:101CD00008958F929F92AF92BF920F931F93CF93CD
:101CE000DF93CDB7DEB7A1970FB6F894DEBF0FBE76
:101CF000CDBF19A2423008F44AE08E010F5D1F4F9C
:101D0000842E912CB12CA12CA50194010E94701855
:101D1000E62FB901CA01EA30F4F4E05DD801EE9390
:101D20008D01232B242B252B79F790E080E0109751
:101D300019F0CD010E944C0EA1960FB6F894DEBFAB
:101D40000FBECDBFDF91CF911F910F91BF90AF908C
:101D50009F908F900895E95CE1CF462FBC0190E001
:101D600080E00C94690ECF93DF930E94AD0EEC01DE
:101D70000E94590E8C0F9D1FDF91CF910895CF9235
:101D8000DF92EF92FF92CF93DF936B017C016DE2C4
:101D90008FEE92E00E94D902EC0166277727CB01F3
:101DA0006C197D098E099F094AE00E94690E8C0F0B
:101DB0009D1FDF91CF91FF90EF90DF90CF9008951E
:101DC000CF93DF93BC01990F880B990B97FF0AC043
:101DD0000E94BF0EEC010E94590E8C0F9D1FDF91D7
:101DE000CF9108954AE00E94690EF4CFBC01990F8B
:101DF000880B990B97FD0C94BF0E4AE00C94690E6A
:101E00002F923F924F925F926F927F928F929F920A
:101E1000AF92BF92CF92DF92EF92FF920F931F93F8
:101E2000CF93DF93CDB7DEB76A970FB6F894DEBFD6
:101E30000FBECDBF8C01DC0112968C918D508D347C
:101E400008F470C088E393E00E942603D80112963C
:101E5000EC918DEA92E0EA35F0F5ED3008F0E0E043
:101E600085EA92E09A83898381EA92E09C838B835E
:101E70008CE992E09E838D8388E992E098878F8336
:101E800084E992E09A87898786E892E09C878B872D
:101E900082E892E09E878D878DE792E0988B8F870E
:101EA00083E792E09A8B898B89E692E09C8B8B8BFF
:101EB00081E692E09E8B8D8B8CE592E0988F8F8BE4
:101EC00087E592E09A8F898FF0E0EE0FFF1FEC0F0D
:101ED000FD1F818192810E94260386E393E00E9488
:101EE0002603F801628170E090E080E04AE00E9401
:101EF000690E8CE293E00E942603D80113966D913F
:101F00007D918D919C91169740E10E94690E85E22A
:101F100093E00E94260360E170E0F80187819085DC
:101F20000E94AD0E82E293E00E942603D80119962A
:101F30006C9170E090E080E04AE00E94690E8AE1D6
:101F400093E00E94260380919503882321F08DE081
:101F500093E00E9426030E94590E80E093E00E94C5
:101F600026036091610470E090E080E04AE00E9406
:101F7000690E88EF92E00E942603E0915F04F091E1
:101F80006004808191816AE070E00E94B30E8EEE61
:101F900092E00E942603E0915F04F0916004828148
:101FA00093816AE070E00E94AD0E8AEE92E00E949A
:101FB0002603E0915F04F0916004848195816AE0DA
:101FC00070E00E94B30EE0915F04F09160044280E3
:101FD000538084819581480E591E712C612CB12C3F
:101FE000A12C312C212C88248A944FE7942ECC24C8
:101FF000CA945FE7D52E63E0E62EF12C8091610450
:102000008E151F0409F00CF45DC0E0915F04F0919F
:102010006004C701880F991FE80FF91F0081118123
:10202000C801012E000CAA0BBB0B480E591E6A1EDC
:102030007B1EE0FE39C0081519050CF44801A016F6
:10204000B1060CF45801C7019595879501970E9438
:10205000F60E87EE92E00E942603C8010E94F60E5B
:1020600087010150110900FF04C082EE92E00E9436
:102070002603C80183709927019721F48FED92E020
:102080000E942603C80187709927019711F40E94C6
:10209000590E0F7111270130110511F40E94590ECC
:1020A000BFEFEB1AFB0AAACF1016110624F40C1589
:1020B0001D050CF46801201631060CF4180184EE9D
:1020C00092E0C9CF0E94590E87ED92E00E9426034C
:1020D0004AE0C301B2010E94690E0E94590E8CECC5
:1020E00092E00E942603C4010E94F60E85EC92E065
:1020F0000E942603C5010E94E00E8AEB92E00E9436
:102100002603C6010E94F60E83EB92E00E9426038E
:10211000C1010E94E00E6A960FB6F894DEBF0FBEB2
:10212000CDBFDF91CF911F910F91FF90EF90DF9086
:10213000CF90BF90AF909F908F907F906F905F9067
:102140004F903F902F900C94590ECF93DF93EC015A
:1021500082EC91E00E942603E0915F04F09160041C
:10216000808191816AE070E00E94AD0E83EB91E086
:102170000E942603E881F98136970190F081E02DD5
:10218000EC0FFD1F638174818581968140E10E947F
:10219000690E8DED92E00E944C0E8C819D8181151F
:1021A00020E3920709F4A5C050F5811520E19207BC
:1021B00039F0811520E2920709F44CC0892B51F5C2
:1021C0008DE890E00E942603CE010E9413068E81C6
:1021D0009F818230910581F18430910581F10197D1
:1021E00089F588E890E00E9426038C819D81892BE7
:1021F00071F58EE690E0DF91CF910C945D0E811524
:1022000020E5920709F4BBC040F4811520E4920751
:1022100009F4B5C0DF91CF910895811520E69207AA
:1022200009F4E5C081159047A9F784E990E00E9480
:10223000260360E170E0E1C082E890E0D4CF8BE754
:1022400090E0D1CF85E790E00E945D0ECECF88E68A
:1022500090E0D1CF8E819F819C012F703327232B5B
:1022600039F187EA91E00E9426038E8180FF16C033
:1022700080EA91E00E9426038E8182FF14C086E9E5
:1022800091E00E9426036A8170E090E080E04AE0DD
:102290000E94690EDF91CF910C94590E81FFECCF13
:1022A0008AE991E0E7CF83FFEECF80E991E0E9CFC3
:1022B0009C0120733327232B69F083E891E00E946F
:1022C00026038E8182FF03C08FE791E0DACF89E792
:1022D00091E0D7CF87FF03C084E691E0D2CF86FF9D
:1022E00003C08FE491E0CDCF8EE391E00E945D0EBC
:1022F000CACF87E391E00E9426038E819F818F3FA2
:10230000910571F48CE291E00E94260384ED90E047
:102310000E9426036B8170E090E080E040E1B8CF3E
:1023200080FF04C08FE191E00E9426038E8181FF2F
:1023300004C081E191E00E9426038E8182FF04C0E7
:1023400082E091E00E9426038E8183FF04C087EF24
:1023500090E00E9426038E8184FF04C08AEE90E004
:102360000E9426038E8185FF04C081EE90E00E94CA
:1023700026038E8186FFCACF8CED90E0C5CF8115F4
:10238000904581F58AEC90E00E942603CE010E94E0
:10239000130689EB90E00E94260360E170E08E81D5
:1023A0009F810E94AD0E8DED92E00E944C0E6AE07E
:1023B00070E08E819F810E94AD0E8E819F818097FB
:1023C0008036910508F066CF80EE92E00E944C0EB8
:1023D0006E818FEE92E00E94D90281EE92E00E941F
:1023E0004C0E58CF81EC90E00E942603D2CF88EAB1
:1023F00090E00E9426036AE070E08E819F81DF9169
:10240000CF910C94B30ECF93C1E0C093940384E0BA
:102410008093660480918D038823E9F08091930373
:102420008823C9F040915E0450E0440F551F66E9CF
:1024300073E080915F04909160040E94CE188091B7
:102440005E048093610410929303C09395031092ED
:102450005E04C0936604CF910895CF92DF92EF920D
:10246000FF92CF93DF9300D000D0CDB7DEB70E94AC
:10247000DE0369837A838B839C83C980DA80EB8057
:10248000FC808091620490916304A0916404B091F7
:102490006504C81AD90AEA0AFB0A809166048430E6
:1024A00049F1853091F1813049F480918C030E948B
:1024B000B503892BF9F485E080936604E0915E040E
:1024C000F0E0EE0FFF1FEA56FC4FD182C0828981F7
:1024D0009A81AB81BC818093620490936304A09342
:1024E0006404B093650480915E048F5F80935E0402
:1024F0008436E0F40F900F900F900F90DF91CF9102
:10250000FF90EF90DF90CF9008950E948A04809111
:102510005E0480FDD3CF80918E0390918F03B0E055
:10252000A0E08C159D05AE05BF0540F60F900F90FD
:102530000F900F90DF91CF91FF90EF90DF90CF90B1
:102540000C9403121F920F920FB60F9211242F9327
:102550003F934F935F936F937F938F939F93AF932B
:10256000BF93EF93FF938FEE92E00E94B702FF912B
:10257000EF91BF91AF919F918F917F916F915F91FB
:102580004F913F912F910F900FBE0F901F90189574
:102590001F920F920FB60F9211242F938F939F9338
:1025A000EF93FF93E091FF02F09100038081E091AF
:1025B0000503F091060382FD1BC090818091080302
:1025C0008F5F8F7320910903821741F0E091080318
:1025D000F0E0E151FD4F958F80930803FF91EF915B
:1025E0009F918F912F910F900FBE0F901F90189574
:1025F0008081F4CF1F920F920FB60F9211242F9368
:102600003F938F939F93AF93BF938091E7029091F5
:10261000E802A091E902B091EA023091E60223E0DB
:10262000230F2D3758F50196A11DB11D2093E60209
:102630008093E7029093E802A093E902B093EA0244
:102640008091EB029091EC02A091ED02B091EE022C
:102650000196A11DB11D8093EB029093EC02A09313
:10266000ED02B093EE02BF91AF919F918F913F9198
:102670002F910F900FBE0F901F90189526E8230FF3
:102680000296A11DB11DD2CF1F920F920FB60F92CD
:1026900011242F933F934F935F936F937F938F9367
:1026A0009F93AF93BF93EF93FF93E0910201F0915B
:1026B00003010995FF91EF91BF91AF919F918F9188
:1026C0007F916F915F914F913F912F910F900FBE2E
:1026D0000F901F9018951F920F920FB60F92112412
:1026E0002F933F934F935F936F937F938F939F931A
:1026F000AF93BF93EF93FF93E0910001F09101013D
:102700000995FF91EF91BF91AF919F918F917F912B
:102710006F915F914F913F912F910F900FBE0F904E
:102720001F90189578941F920F920FB60F92112454
:102730002F933F934F935F936F937F938F939F93C9
:10274000AF93BF93CF93EF93FF9380918C030E943D
:10275000B503C82F8091620490916304A091640432
:10276000B09165040196A11DB11D80936204909300
:102770006304A0936404B093650480915E0484367E
:1027800010F00E94031280916604823009F44AC05E
:10279000B0F4813021F10E948A04FF91EF91CF9132
:1027A000BF91AF919F918F917F916F915F914F9169
:1027B0003F912F910F900FBE0F901F90189583306F
:1027C00009F454C0843039F7C111E5CF1092620486
:1027D000109263041092640410926504DCCFC1115E
:1027E000DACF10925E048091620490916304A0910C
:1027F0006404B0916504E0915E0421E02E0F209303
:102800005E04F0E0EE0FFF1FEA56FC4F91838083D9
:102810001092620410926304109264041092650492
:1028200082E021C0C13009F0B6CF8091620490915E
:102830006304A0916404B0916504E0915E0421E01A
:102840002E0F20935E04F0E0EE0FFF1FEA56FC4FC0
:102850009183808310926204109263041092640446
:102860001092650483E08093660495CFCC2309F42D
:10287000BACF4091620450916304609164047091F6
:1028800065048091900390919103B0E0A0E08417DB
:102890009507A607B70708F07ECF0E9403127BCFEB
:1028A000DC01962F20915F043091600412968C9188
:1028B0001297891708F048C0E82FF0E0EE0FFF1FCD
:1028C000E20FF31F40815181475751404B3F510563
:1028D00010F080E00895E1E0E80F1296EC93129773
:1028E000F0E0EE0FFF1FE20FF31F408151814556CC
:1028F00054404F3E524090F04081518147575140E3
:102900004B3F510530F713964D915D916D917C9140
:102910001697440F551F661F771F0BC013964D91D6
:102920005D916D917C911697440F551F661F771F1F
:10293000416013964D935D936D937C9316978E5FD4
:1029400012968C931297B2CF81E00895E7E6F4E0F7
:102950008AE091E090AB87A782E191E09383828344
:102960000895E7E6F4E08AE191E096A785A780E282
:1029700091E0938382830895E7E6F4E088E291E0B2
:1029800094A783A78EE291E0938382830895E7E67C
:10299000F4E086E391E092A781A78CE391E0938332
:1029A00082830895E7E6F4E084E491E093A382A3B0
:1029B0008AE491E0938382830895E7E6F4E082E578
:1029C00091E091A380A38AE591E0938382830895A7
:1029D000E7E6F4E082E691E0978F868F88E691E063
:1029E000938382830895E7E6F4E080E791E0958F92
:1029F000848F88E791E0938382830895E7E6F4E08B
:102A000082E891E0938F828F8AE891E0938B828BAA
:102A100080E991E0938382830895E7E6F4E088EA11
:102A200091E0918B808B80EB91E0938B828B86EB96
:102A300091E0938382830895FB0120813181FC0121
:102A400031832083FB014281538126503109F901F2
:102A500020813181820F931FFC01518340830895AF
:102A6000E7E6F4E08EEB91E09787868786EC91E0CD
:102A7000938382830895E7E6F4E08EEC91E09183FE
:102A8000808384ED91E0938382830895CF93DF93D5
:102A9000C7E6D4E08AED91E09B838A83109293038A
:102AA00086E993E09093600480935F041C8689E636
:102AB00094E00E94090668E872E0CE010E943B158E
:102AC0006CE872E085E794E00E94301566E972E0F8
:102AD00089E794E00E941C1560E972E087E794E0C2
:102AE0000E940D156AE972E081E894E00E94FE14EC
:102AF00060EA72E083E894E00E94F31464EA72E012
:102B000085E894E00E94E81468EA72E087E894E0BF
:102B10000E94DD146CEA72E089E894E00E94D2140D
:102B200060EB72E080E994E00E94C71464EB72E00D
:102B300082E994E00E94BC1468EB72E084E994E0BE
:102B40000E94B1146CEB72E086E994E00E94A61436
:102B50008CEF91E09983888384E092E09B838A8361
:102B60008EE092E09F878E878AE192E0998B888B36
:102B700082E292E09B8B8A8B8CE292E09B8F8A8F21
:102B800086E392E09D8F8C8F8EE392E09F8F8E8FF5
:102B900086E492E099A388A38EE492E09BA38AA3A3
:102BA00084E592E09AA789A78AE592E09CA78BA783
:102BB00080E692E09EA78DA788E692E098AB8FA76B
:102BC000DF91CF910895EFEEF2E01382128288EE4A
:102BD00093E0A0E0B0E084839583A683B78384EC80
:102BE00092E09183808385EC90E09587848784ECE4
:102BF00090E09787868780EC90E0918B808B81ECCA
:102C000090E0938B828B82EC90E0958B848B86ECAA
:102C100090E0978B868B118E128E138E148EAEE9F8
:102C2000B4E086ED92E011969C938E93ECE8F3E08D
:102C3000178286E993E09093600480935F04118289
:102C400088E79EE1938382838CE990E09583848377
:102C500082E390E013969C938E93129710861682CF
:102C600084E0809366048FEF14968C9385E08083D4
:102C700087E694E00C944615789484B5826084BD10
:102C800084B5816084BD85B5826085BD85B5816070
:102C900085BD80916E00816080936E0010928100EE
:102CA00080918100826080938100809181008160A9
:102CB000809381008091800081608093800080916A
:102CC000B10084608093B1008091B00081608093F6
:102CD000B00080917A00846080937A0080917A00BD
:102CE000826080937A0080917A00816080937A007C
:102CF00080917A00806880937A001092C100E09100
:102D0000FF02F091000382E08083E091FB02F091EA
:102D1000FC021082E091FD02F091FE028FEC8083B4
:102D200010920703E0910303F091040386E080838F
:102D3000E0910103F0910203808180618083E09142
:102D40000103F0910203808188608083E091010398
:102D5000F0910203808180688083E0910103F0910B
:102D6000020380818F7D80830E94DE034B015C0122
:102D700080EDC82E87E0D82EE12CF12C0E94DE03D6
:102D8000681979098A099B09683E73408105910594
:102D9000A8F321E0C21AD108E108F10888EE880EF4
:102DA00083E0981EA11CB11CC114D104E104F104FC
:102DB00029F78EE994E00E941F0485EF91E00E94BC
:102DC0005D0EC0E0D0E0809194038823A9F10E94B9
:102DD000FD0187E694E00E94E509209167043091A7
:102DE0006804F90136978081918189599B4FFC01D4
:102DF00042814C3091F420523109F9018081918156
:102E000089599B4F0E94A510E0916704F0916804D6
:102E100036978081918189599B4F0E94000F8EE9DE
:102E200094E00E941F04209771F20E94A30288235D
:102E300051F20E940000C7CF80916604853099F757
:102E400080918C030E94B503892B69F3F894C0909C
:102E50006204D0906304E0906404F0906504789478
:102E60000E94DE03AB01BC014C195D096E097F09AC
:102E700080918E0390918F03B0E0A0E084179507B6
:102E8000A607B70780F60E940312A1CF0E94BA17C7
:102E900088F09F5798F0B92F9927B751B0F0E1F01B
:102EA000660F771F881F991F1AF0BA95C9F714C0CB
:102EB000B13091F00E94D417B1E008950C94D4176A
:102EC000672F782F8827B85F39F0B93FCCF3869504
:102ED00077956795B395D9F73EF490958095709561
:102EE00061957F4F8F4F9F4F0895E89409C097FBDE
:102EF0003EF490958095709561957F4F8F4F9F4FD1
:102F00009923A9F0F92F96E9BB279395F695879514
:102F100077956795B795F111F8CFFAF4BB0F11F4D7
:102F200060FF1BC06F5F7F4F8F4F9F4F16C088237E
:102F300011F096E911C0772321F09EE8872F762FB4
:102F400005C0662371F096E8862F70E060E02AF0F5
:102F50009A95660F771F881FDAF7880F96958795E1
:102F600097F9089557FD9058440F551F59F05F3F4A
:102F700071F04795880F97FB991F61F09F3F79F09B
:102F800087950895121613061406551FF2CF46951D
:102F9000F1DF08C0161617061806991FF1CF86959F
:102FA0007105610508940895E894BB276627772783
:102FB000CB0197F908950E94EE170C945F180E94B8
:102FC000511838F00E94581820F0952311F00C94F5
:102FD00048180C944E1811240C94D5170E94B2175F
:102FE00070F3959FC1F3950F50E0551F629FF0015C
:102FF000729FBB27F00DB11D639FAA27F00DB11D75
:10300000AA1F649F6627B00DA11D661F829F2227FD
:10301000B00DA11D621F739FB00DA11D621F839F84
:10302000A00D611D221F749F3327A00D611D231F5A
:10303000849F600D211D822F762F6A2F11249F57A8
:1030400050409AF0F1F088234AF0EE0FFF1FBB1FAB
:10305000661F771F881F91505040A9F79E3F51056A
:1030600080F00C9448180C94D5175F3FE4F3983E19
:10307000D4F3869577956795B795F795E7959F5F14
:10308000C1F7FE2B880F911D9695879597F90895A6
:1030900097F99F6780E870E060E008959FEF80EC0B
:1030A000089500240A9416161706180609060895AE
:1030B00000240A9412161306140605060895092E14
:1030C0000394000C11F4882352F0BB0F40F4BF2B83
:1030D00011F460FF04C06F5F7F4F8F4F9F4F0895C3
:1030E000A1E21A2EAA1BBB1BFD010DC0AA1FBB1F0C
:1030F000EE1FFF1FA217B307E407F50720F0A21B7E
:10310000B30BE40BF50B661F771F881F991F1A94EA
:1031100069F760957095809590959B01AC01BD0114
:10312000CF010895002E083090F0982F872F762F2A
:10313000652F542F432F322F22270850F4CF220F10
:10314000331F441F551F661F771F881F991F0A953D
:10315000B2F7002D089597FD1094002E083098F0D6
:103160000850232F342F452F562F672F782F892F64
:10317000912DF4CF159497958795779567955795E9
:103180004795379527950A95AAF71124002D08959C
:10319000EE0FFF1F0590F491E02D0994FB01DC0177
:1031A00002C001900D9241505040D8F70895F89414
:0231B000FFCF4F
:1031B20003040304D3FF00000000A51000002D004B
:1031C20000000906D5FF0000000000002B000000EF
:1031D2000906D7FF000000000000290000000906D0
:1031E200D9FF000000000000270000000906E0FFF0
:1031F200000000000000200000000906E2FF0000BD
:103202000000620600001E0000000906E4FF000044
:10321200000000001C0000000906E6FF000000009C
:10322200E40600001A0000000906E8FFF8FF0000AB
:1032320000001907F0FF080000000000180000005D
:103242000906F0FF0000000000001000000009065F
:10325200F2FF0200000000006508F0FFFEFF000020
:1032620000000E0000000906F4FF000000003A0909
:1032720000000C000000090602000000000000002F
:10328200FEFF000009060000000009062F002D00C5
:103292002B002900220020001E001C001A00120030
:1032A20010000E000000020000000000E50900000E
:1032B200FEFF00000906F2FFF4FFF2FF0000420EDB
:1032C200F0FFF2FF0200F0FF0000380EF0FFEEFF09
:1032D2000000E6FFE8FFF8FFE6FF0000380EE4FF1B
:1032E200E6FFE4FF0000420EE4FFE2FF0000E0FF21
:1032F200E2FFE0FF0000420EE0FFDEFF0000D9FF28
:10330200D7FF0000D7FFD5FF0000D5FFD3FF000095
:103312000000D3FFD1FF0000A510FC01FC01040254
:103322000E021A0222022C0236023E0246024E020D
:1033320054025A0260026802CE01D401BE01C601E3
:10334200A801B001B60198019E0182018A01900193
:10335200700178016201680152015A0144014A0177
:1033620036013C0128012E011A0120010A01120135
:1033720000000000D9023902660241039702750279
:103382008902000000001F0404040D0A002020002E
:0433920020270000F0
:107E0000112484B714BE81FFF0D085E080938100F7
:107E100082E08093C00088E18093C10086E0809377
:107E2000C20080E18093C4008EE0C9D0259A86E02C
:107E300020E33CEF91E0309385002093840096BBD3
:107E4000B09BFECF1D9AA8958150A9F7CC24DD24C4
:107E500088248394B5E0AB2EA1E19A2EF3E0BF2EE7
:107E6000A2D0813461F49FD0082FAFD0023811F036
:107E7000013811F484E001C083E08DD089C08234E0
:107E800011F484E103C0853419F485E0A6D080C0E4
:107E9000853579F488D0E82EFF2485D0082F10E0AE
:107EA000102F00270E291F29000F111F8ED06801E7
:107EB0006FC0863521F484E090D080E0DECF843638
:107EC00009F040C070D06FD0082F6DD080E0C81688
:107ED00080E7D80618F4F601B7BEE895C0E0D1E017
:107EE00062D089930C17E1F7F0E0CF16F0E7DF06D8
:107EF00018F0F601B7BEE89568D007B600FCFDCFD4
:107F0000A601A0E0B1E02C9130E011968C91119780
:107F100090E0982F8827822B932B1296FA010C0160
:107F200087BEE89511244E5F5F4FF1E0A038BF0790
:107F300051F7F601A7BEE89507B600FCFDCF97BE46
:107F4000E89526C08437B1F42ED02DD0F82E2BD052
:107F50003CD0F601EF2C8F010F5F1F4F84911BD097
:107F6000EA94F801C1F70894C11CD11CFA94CF0C13
:107F7000D11C0EC0853739F428D08EE10CD085E9AC
:107F80000AD08FE07ACF813511F488E018D01DD067
:107F900080E101D065CF982F8091C00085FFFCCF94
:107FA0009093C60008958091C00087FFFCCF809118
:107FB000C00084FD01C0A8958091C6000895E0E648
:107FC000F0E098E1908380830895EDDF803219F02E
:107FD00088E0F5DFFFCF84E1DECF1F93182FE3DFCA
:107FE0001150E9F7F2DF1F91089580E0E8DFEE27F6
:047FF000FF270994CA
:027FFE00040479
:0400000300007E007B
:00000001FF
